:020000040800F2
:10000000000003201D0600086D0600086D060008AC
:100010006D0600086D0600086D060008000000006F
:100020000000000000000000000000006D06000855
:100030006D060008000000006D0600086D0600084F
:100040006D0600086D0600086D0600086D060008C4
:100050006D0600086D0600086D0600086D060008B4
:100060006D0600086D0600086D0600086D060008A4
:100070006D0600086D0600086D0600086D06000894
:100080006D0600086D0600086D0600086D06000884
:100090006D0600086D0600086D0600086D06000874
:1000A0006D0600086D0600086D0600086D06000864
:1000B0006D0600086D0600086D0600086D06000854
:1000C0006D0600086D0600086D0600086D06000844
:1000D0006D0600086D0600086D0600086D06000834
:1000E000710200086D0600086D0600086D06000824
:1000F0006D0600086D0600086D0600086D06000814
:100100006D0600086D0600086D0600086D06000803
:100110006D0600086D0600086D0600086D060008F3
:100120006D0600086D0600086D0600086D060008E3
:100130006D0600086D0600086D0600086D060008D3
:100140006D0600086D0600086D0600086D060008C3
:100150006D0600086D0600086D0600086D060008B3
:100160006D0600086D0600086D0600086D060008A3
:100170006D0600086D0600086D060008000000000E
:100180006D0600086D0600086D0600086D06000883
:100190006D0600086D0600086D0600086D06000873
:0C01A0006D0600086D0600086D060008E2
:1001AC0010B5054C237833B9044B13B10448AFF3A5
:1001BC0000800123237010BD04000020000000000B
:1001CC00B806000808B5034B1BB103490348AFF34D
:1001DC00008008BD0000000008000020B8060008E0
:1001EC00034AD2F8883043F47003C2F88830704761
:1001FC0000ED00E008B500F013F800F04DF900F048
:10020C000FF800F037F96FF06201002000F010F9E0
:10021C006FF06201012000F00BF900BFFDE7000058
:10022C000E4A136B43F0020313630D4B1A6822F44E
:10023C00404242F480421A605A6822F080025A60AE
:10024C009A6822F4404242F480429A60DA6822F4BE
:10025C004042DA604FF400029A6170470038024065
:10026C0000040240024A536943F40053536170473F
:10027C00003C0140064B1A6B42F008021A631A6BE1
:10028C0042F010021A635A6C42F001025A64704731
:10029C00003802400E4A136B43F0080313630D4BF6
:1002AC001A6822F07F5242F0AA521A605A6822F45D
:1002BC00F0425A609A6842F07F529A60DA6822F0F3
:1002CC007F52DA609A6942F0F0429A61704700BF3F
:1002DC0000380240000C0240114A136B43F010032B
:1002EC001363104B1A6822F44C0242F408021A6091
:1002FC005A6822F420625A609A6842F44C029A605E
:10030C00DA6822F44C02DA605A6A22F4704222F063
:10031C00F00242F4805242F010025A62704700BF61
:10032C000038024000100240174B1A6822F00102FC
:10033C001A6053229A626322DA629A6922F07B0273
:10034C0042F068029A619A6922F4F64242F4D04271
:10035C009A611A6A22F0330242F011021A620022E8
:10036C005A639A631A6842F080021A605A6C42F41B
:10037C0000425A645A6942F001025A611A6842F00A
:10038C0001021A60704700BF0000014010B1012843
:10039C001ED07047002909DD1C4B9A6942F000629F
:1003AC009A619A6942F480529A617047002905DB80
:1003BC00164A936943F0C05393617047134B9A6983
:1003CC0042F400629A619A6942F080529A617047D5
:1003DC00002909DD0D4B9A6942F000529A619A6925
:1003EC0042F480429A617047002905DB074A936901
:1003FC0043F0C04393617047044B9A6942F4005236
:10040C009A619A6942F080429A617047000C0240EE
:10041C00632900D9632110B9044B59637047012833
:10042C0000D07047014B9963FBE700BF000001400F
:10043C0001281ED838B5054671B1002913DD8CB2E0
:10044C000121632C00D963242846FFF79FFF214626
:10045C002846FFF7DDFF38BDFFF7DAFF00212846FD
:10046C00FFF794FFF7E789B249428CB24FF0FF31A6
:10047C00E7E7704708B5FFF7FDFEFFF70BFFFFF747
:10048C002BFFFFF751FF00210846FFF7D1FF00219A
:10049C000120FFF7CDFF08BD574A136843F0010355
:1004AC001360554B1B6813F0020FFAD0524A936835
:1004BC0023F003039360504B9B6813F00C0FFAD19D
:1004CC004D4A136823F0807313604B4B1B6813F079
:1004DC00007FFAD1484A136823F410231360464B6B
:1004EC001B6813F4003FFAD1434B1A6822F48022A4
:1004FC001A601A6C42F080521A6440490A6842F43D
:10050C0040420A603E4A00201060116841F40071BC
:10051C001160116841F480611160116841F48071BF
:10052C001160116821F00F0141F0050111609A680A
:10053C0022F47C4222F0F0029A609A6822F0F002D7
:10054C009A609A6822F4E05242F4A0529A609A6837
:10055C0022F4604242F400429A6058605A6822F0D9
:10056C003F0242F010025A605A686FF38E1242F446
:10057C00A8425A605A6822F440325A605A6822F4EF
:10058C0080025A605A6822F0706242F0E0625A604F
:10059C001A6842F080721A60174B1B6813F0007FC8
:1005AC00FAD0154A936823F0030343F002039360D7
:1005BC00114B9B6803F00C03082BF9D10E490B6B04
:1005CC0043F004030B630F4B1A6822F4402242F4ED
:1005DC0000221A609A6842F440229A605A6A22F009
:1005EC00F0025A628B6823F0784343F000538B601F
:1005FC00054B064A1A6070470038024000700040F4
:10060C00003C02400008024000000020007A030A6F
:10061C00DFF834D00D480E490E4A002302E0D458BE
:10062C00C4500433C4188C42F9D30B4A0B4C00232E
:10063C0001E013600432A242FBD3FFF7D1FD00F0BE
:10064C0011F8FFF7D7FD70470000032000000020D1
:10065C0004000020D8060008040000202000002020
:10066C00FEE7000070B50D4D0D4C641BA410002668
:10067C00A64209D10B4D0C4C00F018F8641BA410C9
:10068C000026A64205D170BD55F8043B98470136AB
:10069C00EEE755F8043B98470136F2E7D006000820
:1006AC00D0060008D0060008D4060008F8B500BF34
:1006BC00F8BC08BC9E467047F8B500BFF8BC08BC37
:0406CC009E4670478F
:0406D000D10100084C
:0406D400AD0100086C
:0406D8000024F40006
:040000050800061DCC
:00000001FF
